{
  "_format": "hh-sol-artifact-1",
  "contractName": "LandProcess",
  "sourceName": "contracts/LandProcess.sol",
  "abi": [
    {
      "inputs": [],
      "stateMutability": "nonpayable",
      "type": "constructor"
    },
    {
      "inputs": [],
      "name": "ReentrancyGuardReentrantCall",
      "type": "error"
    },
    {
      "anonymous": false,
      "inputs": [
        {
          "indexed": false,
          "internalType": "uint256",
          "name": "landId",
          "type": "uint256"
        },
        {
          "indexed": true,
          "internalType": "address",
          "name": "nft",
          "type": "address"
        },
        {
          "indexed": false,
          "internalType": "uint256",
          "name": "tokenId",
          "type": "uint256"
        },
        {
          "indexed": false,
          "internalType": "uint256",
          "name": "price",
          "type": "uint256"
        },
        {
          "indexed": true,
          "internalType": "address",
          "name": "seller",
          "type": "address"
        },
        {
          "indexed": true,
          "internalType": "address",
          "name": "buyer",
          "type": "address"
        }
      ],
      "name": "Bought",
      "type": "event"
    },
    {
      "anonymous": false,
      "inputs": [
        {
          "indexed": false,
          "internalType": "uint256",
          "name": "landId",
          "type": "uint256"
        },
        {
          "indexed": true,
          "internalType": "address",
          "name": "nft",
          "type": "address"
        },
        {
          "indexed": false,
          "internalType": "string",
          "name": "coordinates",
          "type": "string"
        }
      ],
      "name": "Minted",
      "type": "event"
    },
    {
      "anonymous": false,
      "inputs": [
        {
          "indexed": false,
          "internalType": "uint256",
          "name": "landId",
          "type": "uint256"
        },
        {
          "indexed": true,
          "internalType": "address",
          "name": "nft",
          "type": "address"
        },
        {
          "indexed": false,
          "internalType": "uint256",
          "name": "tokenId",
          "type": "uint256"
        },
        {
          "indexed": false,
          "internalType": "uint256",
          "name": "price",
          "type": "uint256"
        },
        {
          "indexed": true,
          "internalType": "address",
          "name": "seller",
          "type": "address"
        }
      ],
      "name": "Offered",
      "type": "event"
    },
    {
      "inputs": [
        {
          "internalType": "uint256",
          "name": "_landId",
          "type": "uint256"
        }
      ],
      "name": "approve",
      "outputs": [],
      "stateMutability": "nonpayable",
      "type": "function"
    },
    {
      "inputs": [],
      "name": "approver",
      "outputs": [
        {
          "internalType": "address",
          "name": "",
          "type": "address"
        }
      ],
      "stateMutability": "view",
      "type": "function"
    },
    {
      "inputs": [],
      "name": "feeAccount",
      "outputs": [
        {
          "internalType": "address payable",
          "name": "",
          "type": "address"
        }
      ],
      "stateMutability": "view",
      "type": "function"
    },
    {
      "inputs": [],
      "name": "feePercent",
      "outputs": [
        {
          "internalType": "uint256",
          "name": "",
          "type": "uint256"
        }
      ],
      "stateMutability": "view",
      "type": "function"
    },
    {
      "inputs": [
        {
          "internalType": "uint256",
          "name": "_landId",
          "type": "uint256"
        }
      ],
      "name": "getAppovedStatus",
      "outputs": [
        {
          "internalType": "bool",
          "name": "",
          "type": "bool"
        }
      ],
      "stateMutability": "view",
      "type": "function"
    },
    {
      "inputs": [],
      "name": "getApprover",
      "outputs": [
        {
          "internalType": "address",
          "name": "",
          "type": "address"
        }
      ],
      "stateMutability": "view",
      "type": "function"
    },
    {
      "inputs": [
        {
          "internalType": "uint256",
          "name": "_landId",
          "type": "uint256"
        }
      ],
      "name": "getBuyer",
      "outputs": [
        {
          "internalType": "address",
          "name": "",
          "type": "address"
        }
      ],
      "stateMutability": "view",
      "type": "function"
    },
    {
      "inputs": [
        {
          "internalType": "uint256",
          "name": "_landId",
          "type": "uint256"
        }
      ],
      "name": "getCoordinates",
      "outputs": [
        {
          "internalType": "string",
          "name": "",
          "type": "string"
        }
      ],
      "stateMutability": "view",
      "type": "function"
    },
    {
      "inputs": [
        {
          "internalType": "uint256",
          "name": "_landId",
          "type": "uint256"
        }
      ],
      "name": "getDescription",
      "outputs": [
        {
          "internalType": "string",
          "name": "",
          "type": "string"
        }
      ],
      "stateMutability": "view",
      "type": "function"
    },
    {
      "inputs": [],
      "name": "getFeeAccount",
      "outputs": [
        {
          "internalType": "address",
          "name": "",
          "type": "address"
        }
      ],
      "stateMutability": "view",
      "type": "function"
    },
    {
      "inputs": [],
      "name": "getFeePercent",
      "outputs": [
        {
          "internalType": "uint256",
          "name": "",
          "type": "uint256"
        }
      ],
      "stateMutability": "view",
      "type": "function"
    },
    {
      "inputs": [],
      "name": "getLandOwners",
      "outputs": [
        {
          "internalType": "uint256",
          "name": "",
          "type": "uint256"
        }
      ],
      "stateMutability": "view",
      "type": "function"
    },
    {
      "inputs": [
        {
          "internalType": "uint256",
          "name": "_landId",
          "type": "uint256"
        }
      ],
      "name": "getLandStatus",
      "outputs": [
        {
          "internalType": "bool",
          "name": "",
          "type": "bool"
        }
      ],
      "stateMutability": "view",
      "type": "function"
    },
    {
      "inputs": [
        {
          "internalType": "uint256",
          "name": "_id",
          "type": "uint256"
        }
      ],
      "name": "getSeller",
      "outputs": [
        {
          "internalType": "address",
          "name": "",
          "type": "address"
        }
      ],
      "stateMutability": "view",
      "type": "function"
    },
    {
      "inputs": [
        {
          "internalType": "uint256",
          "name": "_landId",
          "type": "uint256"
        }
      ],
      "name": "getTotalPrice",
      "outputs": [
        {
          "internalType": "uint256",
          "name": "",
          "type": "uint256"
        }
      ],
      "stateMutability": "view",
      "type": "function"
    },
    {
      "inputs": [],
      "name": "getTotalRegisteredLand",
      "outputs": [
        {
          "internalType": "uint256",
          "name": "",
          "type": "uint256"
        }
      ],
      "stateMutability": "view",
      "type": "function"
    },
    {
      "inputs": [],
      "name": "getlandCount",
      "outputs": [
        {
          "internalType": "uint256",
          "name": "",
          "type": "uint256"
        }
      ],
      "stateMutability": "view",
      "type": "function"
    },
    {
      "inputs": [],
      "name": "landCount",
      "outputs": [
        {
          "internalType": "uint256",
          "name": "",
          "type": "uint256"
        }
      ],
      "stateMutability": "view",
      "type": "function"
    },
    {
      "inputs": [],
      "name": "landOwners",
      "outputs": [
        {
          "internalType": "uint256",
          "name": "",
          "type": "uint256"
        }
      ],
      "stateMutability": "view",
      "type": "function"
    },
    {
      "inputs": [
        {
          "internalType": "uint256",
          "name": "",
          "type": "uint256"
        }
      ],
      "name": "lands",
      "outputs": [
        {
          "internalType": "uint256",
          "name": "landId",
          "type": "uint256"
        },
        {
          "internalType": "contract IERC721",
          "name": "nft",
          "type": "address"
        },
        {
          "internalType": "uint256",
          "name": "tokenId",
          "type": "uint256"
        },
        {
          "internalType": "uint256",
          "name": "price",
          "type": "uint256"
        },
        {
          "internalType": "address payable",
          "name": "seller",
          "type": "address"
        },
        {
          "internalType": "bool",
          "name": "sold",
          "type": "bool"
        },
        {
          "internalType": "string",
          "name": "description",
          "type": "string"
        },
        {
          "internalType": "string",
          "name": "coordinates",
          "type": "string"
        },
        {
          "internalType": "address",
          "name": "buyer",
          "type": "address"
        },
        {
          "internalType": "bool",
          "name": "isApproved",
          "type": "bool"
        }
      ],
      "stateMutability": "view",
      "type": "function"
    },
    {
      "inputs": [
        {
          "internalType": "uint256",
          "name": "_landId",
          "type": "uint256"
        },
        {
          "internalType": "uint256",
          "name": "_price",
          "type": "uint256"
        }
      ],
      "name": "listLand",
      "outputs": [],
      "stateMutability": "nonpayable",
      "type": "function"
    },
    {
      "inputs": [
        {
          "internalType": "contract IERC721",
          "name": "_nft",
          "type": "address"
        },
        {
          "internalType": "string",
          "name": "_description",
          "type": "string"
        },
        {
          "internalType": "string",
          "name": "_coordinates",
          "type": "string"
        }
      ],
      "name": "makeland",
      "outputs": [],
      "stateMutability": "nonpayable",
      "type": "function"
    },
    {
      "inputs": [
        {
          "internalType": "uint256",
          "name": "_landId",
          "type": "uint256"
        }
      ],
      "name": "purchaseland",
      "outputs": [],
      "stateMutability": "payable",
      "type": "function"
    },
    {
      "inputs": [
        {
          "internalType": "uint256",
          "name": "_landId",
          "type": "uint256"
        },
        {
          "internalType": "address payable",
          "name": "_seller",
          "type": "address"
        }
      ],
      "name": "registerLand",
      "outputs": [
        {
          "internalType": "bool",
          "name": "sucess",
          "type": "bool"
        }
      ],
      "stateMutability": "nonpayable",
      "type": "function"
    },
    {
      "inputs": [
        {
          "internalType": "address",
          "name": "_approval",
          "type": "address"
        }
      ],
      "name": "setApproval",
      "outputs": [],
      "stateMutability": "nonpayable",
      "type": "function"
    },
    {
      "inputs": [
        {
          "internalType": "address",
          "name": "_feeAccount",
          "type": "address"
        }
      ],
      "name": "setFeeAccount",
      "outputs": [],
      "stateMutability": "nonpayable",
      "type": "function"
    },
    {
      "inputs": [
        {
          "internalType": "uint256",
          "name": "_feePercent",
          "type": "uint256"
        }
      ],
      "name": "setFeePercent",
      "outputs": [],
      "stateMutability": "nonpayable",
      "type": "function"
    },
    {
      "inputs": [
        {
          "internalType": "uint256",
          "name": "_landId",
          "type": "uint256"
        }
      ],
      "name": "setLandStatus",
      "outputs": [],
      "stateMutability": "nonpayable",
      "type": "function"
    },
    {
      "inputs": [
        {
          "internalType": "uint256",
          "name": "_price",
          "type": "uint256"
        },
        {
          "internalType": "uint256",
          "name": "_landId",
          "type": "uint256"
        }
      ],
      "name": "setPrice",
      "outputs": [],
      "stateMutability": "nonpayable",
      "type": "function"
    },
    {
      "inputs": [
        {
          "internalType": "uint256",
          "name": "_landId",
          "type": "uint256"
        },
        {
          "internalType": "address",
          "name": "_buyer",
          "type": "address"
        }
      ],
      "name": "setbuyer",
      "outputs": [],
      "stateMutability": "nonpayable",
      "type": "function"
    },
    {
      "inputs": [],
      "name": "tempAddress",
      "outputs": [
        {
          "internalType": "address",
          "name": "",
          "type": "address"
        }
      ],
      "stateMutability": "view",
      "type": "function"
    },
    {
      "inputs": [
        {
          "internalType": "uint256",
          "name": "",
          "type": "uint256"
        }
      ],
      "name": "totalLandOwners",
      "outputs": [
        {
          "internalType": "address",
          "name": "",
          "type": "address"
        }
      ],
      "stateMutability": "view",
      "type": "function"
    },
    {
      "inputs": [],
      "name": "totalRegisteredLands",
      "outputs": [
        {
          "internalType": "uint256",
          "name": "",
          "type": "uint256"
        }
      ],
      "stateMutability": "view",
      "type": "function"
    }
  ],
  "bytecode": "0x6080604052738626f6940e2eb28930efb4cef49b2d1f2c9c1199600260006101000a81548173ffffffffffffffffffffffffffffffffffffffff021916908373ffffffffffffffffffffffffffffffffffffffff160217905550600260035573cd3b766ccdd6ae721141f452c550ca635964ce71600560006101000a81548173ffffffffffffffffffffffffffffffffffffffff021916908373ffffffffffffffffffffffffffffffffffffffff16021790555073cd3b766ccdd6ae721141f452c550ca635964ce71600660006101000a81548173ffffffffffffffffffffffffffffffffffffffff021916908373ffffffffffffffffffffffffffffffffffffffff16021790555034801561011457600080fd5b50600160008190555033600260006101000a81548173ffffffffffffffffffffffffffffffffffffffff021916908373ffffffffffffffffffffffffffffffffffffffff16021790555033600160006101000a81548173ffffffffffffffffffffffffffffffffffffffff021916908373ffffffffffffffffffffffffffffffffffffffff16021790555033600560006101000a81548173ffffffffffffffffffffffffffffffffffffffff021916908373ffffffffffffffffffffffffffffffffffffffff160217905550612bd6806101ef6000396000f3fe6080604052600436106101ee5760003560e01c80636a42fe951161010d578063d6a9de51116100a0578063e6c681c31161006f578063e6c681c314610739578063f35fb20914610762578063f7d975771461078b578063f84b859b146107b4578063fc20bd6f146107f1576101ee565b8063d6a9de5114610662578063d7bce6581461069f578063dbd26601146106ca578063e261f1e5146106f3576101ee565b8063ac95437a116100dc578063ac95437a146105a6578063b759f954146105d1578063be74264d146105fa578063ca7dd37514610625576101ee565b80636a42fe95146104ea5780637ce3489b146105275780637dfaea18146105505780637fd6f15c1461057b576101ee565b80634614be9f11610185578063583a269b11610154578063583a269b1461042c5780635bf608b81461045757806365e17c9d1461049457806369b441ac146104bf576101ee565b80634614be9f146103725780634925ec551461039d5780634b023cf8146103da578063552c079514610403576101ee565b8063141a8dd8116101c1578063141a8dd8146102b45780631e2a06db146102df57806322c5dec71461030a57806327e3e83a14610335576101ee565b806301016bef146101f3578063048354261461021e5780630bf378181461025b5780630f67562a14610298575b600080fd5b3480156101ff57600080fd5b5061020861081a565b6040516102159190611c7e565b60405180910390f35b34801561022a57600080fd5b5061024560048036038101906102409190611cd9565b610824565b6040516102529190611d21565b60405180910390f35b34801561026757600080fd5b50610282600480360381019061027d9190611cd9565b610851565b60405161028f9190611dcc565b60405180910390f35b6102b260048036038101906102ad9190611cd9565b6108f9565b005b3480156102c057600080fd5b506102c9610d9d565b6040516102d69190611e2f565b60405180910390f35b3480156102eb57600080fd5b506102f4610dc3565b6040516103019190611c7e565b60405180910390f35b34801561031657600080fd5b5061031f610dc9565b60405161032c9190611e2f565b60405180910390f35b34801561034157600080fd5b5061035c60048036038101906103579190611e88565b610def565b6040516103699190611d21565b60405180910390f35b34801561037e57600080fd5b50610387610f93565b6040516103949190611e2f565b60405180910390f35b3480156103a957600080fd5b506103c460048036038101906103bf9190611cd9565b610fbd565b6040516103d19190611dcc565b60405180910390f35b3480156103e657600080fd5b5061040160048036038101906103fc9190611ef4565b611065565b005b34801561040f57600080fd5b5061042a60048036038101906104259190612094565b611139565b005b34801561043857600080fd5b5061044161148e565b60405161044e9190611e2f565b60405180910390f35b34801561046357600080fd5b5061047e60048036038101906104799190611cd9565b6114b8565b60405161048b9190611e2f565b60405180910390f35b3480156104a057600080fd5b506104a96114f8565b6040516104b6919061212e565b60405180910390f35b3480156104cb57600080fd5b506104d461151e565b6040516104e19190611c7e565b60405180910390f35b3480156104f657600080fd5b50610511600480360381019061050c9190611cd9565b611528565b60405161051e9190611e2f565b60405180910390f35b34801561053357600080fd5b5061054e60048036038101906105499190611cd9565b611567565b005b34801561055c57600080fd5b50610565611601565b6040516105729190611c7e565b60405180910390f35b34801561058757600080fd5b5061059061160b565b60405161059d9190611c7e565b60405180910390f35b3480156105b257600080fd5b506105bb611611565b6040516105c89190611c7e565b60405180910390f35b3480156105dd57600080fd5b506105f860048036038101906105f39190611cd9565b611617565b005b34801561060657600080fd5b5061060f6116be565b60405161061c9190611c7e565b60405180910390f35b34801561063157600080fd5b5061064c60048036038101906106479190611cd9565b6116c8565b6040516106599190611c7e565b60405180910390f35b34801561066e57600080fd5b5061068960048036038101906106849190611cd9565b61170d565b6040516106969190611e2f565b60405180910390f35b3480156106ab57600080fd5b506106b461174d565b6040516106c19190611c7e565b60405180910390f35b3480156106d657600080fd5b506106f160048036038101906106ec9190611cd9565b611753565b005b3480156106ff57600080fd5b5061071a60048036038101906107159190611cd9565b6117a8565b6040516107309a999897969594939291906121a8565b60405180910390f35b34801561074557600080fd5b50610760600480360381019061075b9190611ef4565b611986565b005b34801561076e57600080fd5b5061078960048036038101906107849190612252565b611a5a565b005b34801561079757600080fd5b506107b260048036038101906107ad9190612252565b611aa8565b005b3480156107c057600080fd5b506107db60048036038101906107d69190611cd9565b611ac7565b6040516107e89190611d21565b60405180910390f35b3480156107fd57600080fd5b5061081860048036038101906108139190612292565b611af4565b005b6000600454905090565b6000600a600083815260200190815260200160002060040160149054906101000a900460ff169050919050565b6060600a6000838152602001908152602001600020600601805461087490612301565b80601f01602080910402602001604051908101604052809291908181526020018280546108a090612301565b80156108ed5780601f106108c2576101008083540402835291602001916108ed565b820191906000526020600020905b8154815290600101906020018083116108d057829003601f168201915b50505050509050919050565b610901611bf1565b6001151561090e82611ac7565b151514610950576040517f08c379a00000000000000000000000000000000000000000000000000000000081526004016109479061237e565b60405180910390fd5b600061095b826116c8565b90506000600a6000848152602001908152602001600020905060008311801561098657506004548311155b6109c5576040517f08c379a00000000000000000000000000000000000000000000000000000000081526004016109bc906123ea565b60405180910390fd5b81341015610a08576040517f08c379a00000000000000000000000000000000000000000000000000000000081526004016109ff9061247c565b60405180910390fd5b8060040160149054906101000a900460ff1615610a5a576040517f08c379a0000000000000000000000000000000000000000000000000000000008152600401610a51906124e8565b60405180910390fd5b610a63836114b8565b73ffffffffffffffffffffffffffffffffffffffff163373ffffffffffffffffffffffffffffffffffffffff1614610ad0576040517f08c379a0000000000000000000000000000000000000000000000000000000008152600401610ac790612554565b60405180910390fd5b8060040160009054906101000a900473ffffffffffffffffffffffffffffffffffffffff1673ffffffffffffffffffffffffffffffffffffffff166108fc82600301549081150290604051600060405180830381858888f19350505050158015610b3e573d6000803e3d6000fd5b50600260009054906101000a900473ffffffffffffffffffffffffffffffffffffffff1673ffffffffffffffffffffffffffffffffffffffff166108fc826003015484610b8b91906125a3565b9081150290604051600060405180830381858888f19350505050158015610bb6573d6000803e3d6000fd5b5060018160040160146101000a81548160ff0219169083151502179055508060010160009054906101000a900473ffffffffffffffffffffffffffffffffffffffff1673ffffffffffffffffffffffffffffffffffffffff166323b872dd303384600201546040518463ffffffff1660e01b8152600401610c39939291906125d7565b600060405180830381600087803b158015610c5357600080fd5b505af1158015610c67573d6000803e3d6000fd5b5050505033600a600085815260200190815260200160002060040160006101000a81548173ffffffffffffffffffffffffffffffffffffffff021916908373ffffffffffffffffffffffffffffffffffffffff1602179055503373ffffffffffffffffffffffffffffffffffffffff168160040160009054906101000a900473ffffffffffffffffffffffffffffffffffffffff1673ffffffffffffffffffffffffffffffffffffffff168260010160009054906101000a900473ffffffffffffffffffffffffffffffffffffffff1673ffffffffffffffffffffffffffffffffffffffff167f8b4c9c8a607d67b321582dd8461041b1dc2ceeca70c8b7f37f8e02095cf2e76d8685600201548660030154604051610d889392919061260e565b60405180910390a45050610d9a611c37565b50565b600560009054906101000a900473ffffffffffffffffffffffffffffffffffffffff1681565b60085481565b600660009054906101000a900473ffffffffffffffffffffffffffffffffffffffff1681565b600081600a600085815260200190815260200160002060040160006101000a81548173ffffffffffffffffffffffffffffffffffffffff021916908373ffffffffffffffffffffffffffffffffffffffff16021790555060096000815480929190610e5990612645565b919050555060006001905060005b600b80549050811015610f0757600b8181548110610e8857610e8761268d565b5b9060005260206000200160009054906101000a900473ffffffffffffffffffffffffffffffffffffffff1673ffffffffffffffffffffffffffffffffffffffff168473ffffffffffffffffffffffffffffffffffffffff1603610ef4578180610ef090612645565b9250505b8080610eff90612645565b915050610e67565b5060018103610f8c5760086000815480929190610f2390612645565b9190505550600b839080600181540180825580915050600190039060005260206000200160009091909190916101000a81548173ffffffffffffffffffffffffffffffffffffffff021916908373ffffffffffffffffffffffffffffffffffffffff1602179055505b5092915050565b6000600260009054906101000a900473ffffffffffffffffffffffffffffffffffffffff16905090565b6060600a60008381526020019081526020016000206005018054610fe090612301565b80601f016020809104026020016040519081016040528092919081815260200182805461100c90612301565b80156110595780601f1061102e57610100808354040283529160200191611059565b820191906000526020600020905b81548152906001019060200180831161103c57829003601f168201915b50505050509050919050565b600160009054906101000a900473ffffffffffffffffffffffffffffffffffffffff1673ffffffffffffffffffffffffffffffffffffffff163373ffffffffffffffffffffffffffffffffffffffff16146110f5576040517f08c379a00000000000000000000000000000000000000000000000000000000081526004016110ec90612708565b60405180910390fd5b80600260006101000a81548173ffffffffffffffffffffffffffffffffffffffff021916908373ffffffffffffffffffffffffffffffffffffffff16021790555050565b611141611bf1565b61114b6007611c41565b60006111576007611c57565b90506004600081548092919061116c90612645565b91905055508373ffffffffffffffffffffffffffffffffffffffff166323b872dd3330846040518463ffffffff1660e01b81526004016111ae939291906125d7565b600060405180830381600087803b1580156111c857600080fd5b505af11580156111dc573d6000803e3d6000fd5b5050505060405180610140016040528060045481526020018573ffffffffffffffffffffffffffffffffffffffff16815260200182815260200160048152602001600660009054906101000a900473ffffffffffffffffffffffffffffffffffffffff1673ffffffffffffffffffffffffffffffffffffffff168152602001600015158152602001848152602001838152602001600660009054906101000a900473ffffffffffffffffffffffffffffffffffffffff1673ffffffffffffffffffffffffffffffffffffffff16815260200160001515815250600a600060045481526020019081526020016000206000820151816000015560208201518160010160006101000a81548173ffffffffffffffffffffffffffffffffffffffff021916908373ffffffffffffffffffffffffffffffffffffffff160217905550604082015181600201556060820151816003015560808201518160040160006101000a81548173ffffffffffffffffffffffffffffffffffffffff021916908373ffffffffffffffffffffffffffffffffffffffff16021790555060a08201518160040160146101000a81548160ff02191690831515021790555060c08201518160050190816113ab91906128ca565b5060e08201518160060190816113c191906128ca565b506101008201518160070160006101000a81548173ffffffffffffffffffffffffffffffffffffffff021916908373ffffffffffffffffffffffffffffffffffffffff1602179055506101208201518160070160146101000a81548160ff0219169083151502179055509050508373ffffffffffffffffffffffffffffffffffffffff167f3b8a974a6971dbe70c8718ec80406b2790d2aa5477b6a5bed3d94fa19e06d60d6004548460405161147892919061299c565b60405180910390a250611489611c37565b505050565b6000600560009054906101000a900473ffffffffffffffffffffffffffffffffffffffff16905090565b6000600a600083815260200190815260200160002060070160009054906101000a900473ffffffffffffffffffffffffffffffffffffffff169050919050565b600260009054906101000a900473ffffffffffffffffffffffffffffffffffffffff1681565b6000600854905090565b600b818154811061153857600080fd5b906000526020600020016000915054906101000a900473ffffffffffffffffffffffffffffffffffffffff1681565b600160009054906101000a900473ffffffffffffffffffffffffffffffffffffffff1673ffffffffffffffffffffffffffffffffffffffff163373ffffffffffffffffffffffffffffffffffffffff16146115f7576040517f08c379a00000000000000000000000000000000000000000000000000000000081526004016115ee90612708565b60405180910390fd5b8060038190555050565b6000600954905090565b60035481565b60095481565b61161f61148e565b73ffffffffffffffffffffffffffffffffffffffff163373ffffffffffffffffffffffffffffffffffffffff161461168c576040517f08c379a000000000000000000000000000000000000000000000000000000000815260040161168390612a3e565b60405180910390fd5b6001600a600083815260200190815260200160002060070160146101000a81548160ff02191690831515021790555050565b6000600354905090565b6000606460035460646116db9190612a5e565b600a6000858152602001908152602001600020600301546116fc9190612a92565b6117069190612b03565b9050919050565b6000600a600083815260200190815260200160002060040160009054906101000a900473ffffffffffffffffffffffffffffffffffffffff169050919050565b60045481565b600a600082815260200190815260200160002060040160149054906101000a900460ff1615600a600083815260200190815260200160002060040160146101000a81548160ff02191690831515021790555050565b600a6020528060005260406000206000915090508060000154908060010160009054906101000a900473ffffffffffffffffffffffffffffffffffffffff16908060020154908060030154908060040160009054906101000a900473ffffffffffffffffffffffffffffffffffffffff16908060040160149054906101000a900460ff169080600501805461183c90612301565b80601f016020809104026020016040519081016040528092919081815260200182805461186890612301565b80156118b55780601f1061188a576101008083540402835291602001916118b5565b820191906000526020600020905b81548152906001019060200180831161189857829003601f168201915b5050505050908060060180546118ca90612301565b80601f01602080910402602001604051908101604052809291908181526020018280546118f690612301565b80156119435780601f1061191857610100808354040283529160200191611943565b820191906000526020600020905b81548152906001019060200180831161192657829003601f168201915b5050505050908060070160009054906101000a900473ffffffffffffffffffffffffffffffffffffffff16908060070160149054906101000a900460ff1690508a565b600160009054906101000a900473ffffffffffffffffffffffffffffffffffffffff1673ffffffffffffffffffffffffffffffffffffffff163373ffffffffffffffffffffffffffffffffffffffff1614611a16576040517f08c379a0000000000000000000000000000000000000000000000000000000008152600401611a0d90612708565b60405180910390fd5b80600560006101000a81548173ffffffffffffffffffffffffffffffffffffffff021916908373ffffffffffffffffffffffffffffffffffffffff16021790555050565b6001600a600084815260200190815260200160002060040160146101000a81548160ff02191690831515021790555080600a6000848152602001908152602001600020600301819055505050565b81600a6000838152602001908152602001600020600301819055505050565b6000600a600083815260200190815260200160002060070160149054906101000a900460ff169050919050565b600a600083815260200190815260200160002060040160009054906101000a900473ffffffffffffffffffffffffffffffffffffffff1673ffffffffffffffffffffffffffffffffffffffff163373ffffffffffffffffffffffffffffffffffffffff1614611b98576040517f08c379a0000000000000000000000000000000000000000000000000000000008152600401611b8f90612b80565b60405180910390fd5b80600a600084815260200190815260200160002060070160006101000a81548173ffffffffffffffffffffffffffffffffffffffff021916908373ffffffffffffffffffffffffffffffffffffffff1602179055505050565b600260005403611c2d576040517f3ee5aeb500000000000000000000000000000000000000000000000000000000815260040160405180910390fd5b6002600081905550565b6001600081905550565b6001816000016000828254019250508190555050565b600081600001549050919050565b6000819050919050565b611c7881611c65565b82525050565b6000602082019050611c936000830184611c6f565b92915050565b6000604051905090565b600080fd5b600080fd5b611cb681611c65565b8114611cc157600080fd5b50565b600081359050611cd381611cad565b92915050565b600060208284031215611cef57611cee611ca3565b5b6000611cfd84828501611cc4565b91505092915050565b60008115159050919050565b611d1b81611d06565b82525050565b6000602082019050611d366000830184611d12565b92915050565b600081519050919050565b600082825260208201905092915050565b60005b83811015611d76578082015181840152602081019050611d5b565b60008484015250505050565b6000601f19601f8301169050919050565b6000611d9e82611d3c565b611da88185611d47565b9350611db8818560208601611d58565b611dc181611d82565b840191505092915050565b60006020820190508181036000830152611de68184611d93565b905092915050565b600073ffffffffffffffffffffffffffffffffffffffff82169050919050565b6000611e1982611dee565b9050919050565b611e2981611e0e565b82525050565b6000602082019050611e446000830184611e20565b92915050565b6000611e5582611dee565b9050919050565b611e6581611e4a565b8114611e7057600080fd5b50565b600081359050611e8281611e5c565b92915050565b60008060408385031215611e9f57611e9e611ca3565b5b6000611ead85828601611cc4565b9250506020611ebe85828601611e73565b9150509250929050565b611ed181611e0e565b8114611edc57600080fd5b50565b600081359050611eee81611ec8565b92915050565b600060208284031215611f0a57611f09611ca3565b5b6000611f1884828501611edf565b91505092915050565b6000611f2c82611e0e565b9050919050565b611f3c81611f21565b8114611f4757600080fd5b50565b600081359050611f5981611f33565b92915050565b600080fd5b600080fd5b7f4e487b7100000000000000000000000000000000000000000000000000000000600052604160045260246000fd5b611fa182611d82565b810181811067ffffffffffffffff82111715611fc057611fbf611f69565b5b80604052505050565b6000611fd3611c99565b9050611fdf8282611f98565b919050565b600067ffffffffffffffff821115611fff57611ffe611f69565b5b61200882611d82565b9050602081019050919050565b82818337600083830152505050565b600061203761203284611fe4565b611fc9565b90508281526020810184848401111561205357612052611f64565b5b61205e848285612015565b509392505050565b600082601f83011261207b5761207a611f5f565b5b813561208b848260208601612024565b91505092915050565b6000806000606084860312156120ad576120ac611ca3565b5b60006120bb86828701611f4a565b935050602084013567ffffffffffffffff8111156120dc576120db611ca8565b5b6120e886828701612066565b925050604084013567ffffffffffffffff81111561210957612108611ca8565b5b61211586828701612066565b9150509250925092565b61212881611e4a565b82525050565b6000602082019050612143600083018461211f565b92915050565b6000819050919050565b600061216e61216961216484611dee565b612149565b611dee565b9050919050565b600061218082612153565b9050919050565b600061219282612175565b9050919050565b6121a281612187565b82525050565b6000610140820190506121be600083018d611c6f565b6121cb602083018c612199565b6121d8604083018b611c6f565b6121e5606083018a611c6f565b6121f2608083018961211f565b6121ff60a0830188611d12565b81810360c08301526122118187611d93565b905081810360e08301526122258186611d93565b9050612235610100830185611e20565b612243610120830184611d12565b9b9a5050505050505050505050565b6000806040838503121561226957612268611ca3565b5b600061227785828601611cc4565b925050602061228885828601611cc4565b9150509250929050565b600080604083850312156122a9576122a8611ca3565b5b60006122b785828601611cc4565b92505060206122c885828601611edf565b9150509250929050565b7f4e487b7100000000000000000000000000000000000000000000000000000000600052602260045260246000fd5b6000600282049050600182168061231957607f821691505b60208210810361232c5761232b6122d2565b5b50919050565b7f697473206e6f7420617070726f7665642074727920616761696e206c61746572600082015250565b6000612368602083611d47565b915061237382612332565b602082019050919050565b600060208201905081810360008301526123978161235b565b9050919050565b7f4c616e6420646f65736e27742065786973740000000000000000000000000000600082015250565b60006123d4601283611d47565b91506123df8261239e565b602082019050919050565b60006020820190508181036000830152612403816123c7565b9050919050565b7f6e6f7420656e6f75676820657468657220746f20636f766572206c616e64207060008201527f7269636520616e64206d61726b65742066656500000000000000000000000000602082015250565b6000612466603383611d47565b91506124718261240a565b604082019050919050565b6000602082019050818103600083015261249581612459565b9050919050565b7f4c616e6420616c726561647920736f6c64000000000000000000000000000000600082015250565b60006124d2601183611d47565b91506124dd8261249c565b602082019050919050565b60006020820190508181036000830152612501816124c5565b9050919050565b7f796f7520617265206e6f74207468652062757965720000000000000000000000600082015250565b600061253e601583611d47565b915061254982612508565b602082019050919050565b6000602082019050818103600083015261256d81612531565b9050919050565b7f4e487b7100000000000000000000000000000000000000000000000000000000600052601160045260246000fd5b60006125ae82611c65565b91506125b983611c65565b92508282039050818111156125d1576125d0612574565b5b92915050565b60006060820190506125ec6000830186611e20565b6125f96020830185611e20565b6126066040830184611c6f565b949350505050565b60006060820190506126236000830186611c6f565b6126306020830185611c6f565b61263d6040830184611c6f565b949350505050565b600061265082611c65565b91507fffffffffffffffffffffffffffffffffffffffffffffffffffffffffffffffff820361268257612681612574565b5b600182019050919050565b7f4e487b7100000000000000000000000000000000000000000000000000000000600052603260045260246000fd5b7f796f7520646f6e74206f776e2074686973000000000000000000000000000000600082015250565b60006126f2601183611d47565b91506126fd826126bc565b602082019050919050565b60006020820190508181036000830152612721816126e5565b9050919050565b60008190508160005260206000209050919050565b60006020601f8301049050919050565b600082821b905092915050565b60006008830261278a7fffffffffffffffffffffffffffffffffffffffffffffffffffffffffffffffff8261274d565b612794868361274d565b95508019841693508086168417925050509392505050565b60006127c76127c26127bd84611c65565b612149565b611c65565b9050919050565b6000819050919050565b6127e1836127ac565b6127f56127ed826127ce565b84845461275a565b825550505050565b600090565b61280a6127fd565b6128158184846127d8565b505050565b5b818110156128395761282e600082612802565b60018101905061281b565b5050565b601f82111561287e5761284f81612728565b6128588461273d565b81016020851015612867578190505b61287b6128738561273d565b83018261281a565b50505b505050565b600082821c905092915050565b60006128a160001984600802612883565b1980831691505092915050565b60006128ba8383612890565b9150826002028217905092915050565b6128d382611d3c565b67ffffffffffffffff8111156128ec576128eb611f69565b5b6128f68254612301565b61290182828561283d565b600060209050601f8311600181146129345760008415612922578287015190505b61292c85826128ae565b865550612994565b601f19841661294286612728565b60005b8281101561296a57848901518255600182019150602085019450602081019050612945565b868310156129875784890151612983601f891682612890565b8355505b6001600288020188555050505b505050505050565b60006040820190506129b16000830185611c6f565b81810360208301526129c38184611d93565b90509392505050565b7f796f7520617265206e6f7420617070726f76657220666f722074686973206c6160008201527f6e64000000000000000000000000000000000000000000000000000000000000602082015250565b6000612a28602283611d47565b9150612a33826129cc565b604082019050919050565b60006020820190508181036000830152612a5781612a1b565b9050919050565b6000612a6982611c65565b9150612a7483611c65565b9250828201905080821115612a8c57612a8b612574565b5b92915050565b6000612a9d82611c65565b9150612aa883611c65565b9250828202612ab681611c65565b91508282048414831517612acd57612acc612574565b5b5092915050565b7f4e487b7100000000000000000000000000000000000000000000000000000000600052601260045260246000fd5b6000612b0e82611c65565b9150612b1983611c65565b925082612b2957612b28612ad4565b5b828204905092915050565b7f796f7520617265206e6f7420656c6c696769626c650000000000000000000000600082015250565b6000612b6a601583611d47565b9150612b7582612b34565b602082019050919050565b60006020820190508181036000830152612b9981612b5d565b905091905056fea264697066735822122022fd35d88dd444dae9b88319eccf753a75bb0eea50537237b080de49299fe6c164736f6c63430008140033",
  "linkReferences": {},
  "deployedLinkReferences": {}
}