{
  "_format": "hh-sol-artifact-1",
  "contractName": "LandTransfersContract",
  "sourceName": "contracts/landTransfers.sol",
  "abi": [
    {
      "anonymous": false,
      "inputs": [
        {
          "indexed": false,
          "internalType": "uint256",
          "name": "land_transfer_id",
          "type": "uint256"
        },
        {
          "indexed": false,
          "internalType": "string",
          "name": "title_deed_number",
          "type": "string"
        },
        {
          "indexed": false,
          "internalType": "string",
          "name": "title_deed_name",
          "type": "string"
        },
        {
          "indexed": false,
          "internalType": "string",
          "name": "land_code",
          "type": "string"
        },
        {
          "indexed": false,
          "internalType": "string",
          "name": "owner_nation_id",
          "type": "string"
        },
        {
          "indexed": false,
          "internalType": "string",
          "name": "owner_phone_number",
          "type": "string"
        },
        {
          "indexed": false,
          "internalType": "string",
          "name": "land_type",
          "type": "string"
        },
        {
          "indexed": false,
          "internalType": "string",
          "name": "land_layout_url",
          "type": "string"
        }
      ],
      "name": "LandTransfer",
      "type": "event"
    },
    {
      "inputs": [],
      "name": "getTotal",
      "outputs": [
        {
          "internalType": "uint256",
          "name": "",
          "type": "uint256"
        }
      ],
      "stateMutability": "view",
      "type": "function"
    },
    {
      "inputs": [
        {
          "internalType": "string",
          "name": "_land_code",
          "type": "string"
        }
      ],
      "name": "get_title_deed",
      "outputs": [
        {
          "components": [
            {
              "internalType": "uint256",
              "name": "land_transfer_id",
              "type": "uint256"
            },
            {
              "internalType": "string",
              "name": "title_deed_number",
              "type": "string"
            },
            {
              "internalType": "string",
              "name": "title_deed_name",
              "type": "string"
            },
            {
              "internalType": "string",
              "name": "land_code",
              "type": "string"
            },
            {
              "internalType": "string",
              "name": "owner_nation_id",
              "type": "string"
            },
            {
              "internalType": "string",
              "name": "owner_phone_number",
              "type": "string"
            },
            {
              "internalType": "string",
              "name": "land_type",
              "type": "string"
            },
            {
              "internalType": "string",
              "name": "land_layout_url",
              "type": "string"
            }
          ],
          "internalType": "struct LandTransfersContract.LandTransfers",
          "name": "",
          "type": "tuple"
        }
      ],
      "stateMutability": "view",
      "type": "function"
    },
    {
      "inputs": [
        {
          "internalType": "string",
          "name": "",
          "type": "string"
        }
      ],
      "name": "land_transfers",
      "outputs": [
        {
          "internalType": "uint256",
          "name": "land_transfer_id",
          "type": "uint256"
        },
        {
          "internalType": "string",
          "name": "title_deed_number",
          "type": "string"
        },
        {
          "internalType": "string",
          "name": "title_deed_name",
          "type": "string"
        },
        {
          "internalType": "string",
          "name": "land_code",
          "type": "string"
        },
        {
          "internalType": "string",
          "name": "owner_nation_id",
          "type": "string"
        },
        {
          "internalType": "string",
          "name": "owner_phone_number",
          "type": "string"
        },
        {
          "internalType": "string",
          "name": "land_type",
          "type": "string"
        },
        {
          "internalType": "string",
          "name": "land_layout_url",
          "type": "string"
        }
      ],
      "stateMutability": "view",
      "type": "function"
    },
    {
      "inputs": [
        {
          "internalType": "string",
          "name": "_title_deed_number",
          "type": "string"
        },
        {
          "internalType": "string",
          "name": "_title_deed_name",
          "type": "string"
        },
        {
          "internalType": "string",
          "name": "_land_code",
          "type": "string"
        },
        {
          "internalType": "string",
          "name": "_owner_nation_id",
          "type": "string"
        },
        {
          "internalType": "string",
          "name": "_owner_phone_number",
          "type": "string"
        },
        {
          "internalType": "string",
          "name": "_land_type",
          "type": "string"
        },
        {
          "internalType": "string",
          "name": "_land_layout_url",
          "type": "string"
        }
      ],
      "name": "make_transaction",
      "outputs": [],
      "stateMutability": "nonpayable",
      "type": "function"
    }
  ],
  "bytecode": "0x608060405234801561001057600080fd5b5061145f806100206000396000f3fe608060405234801561001057600080fd5b506004361061004c5760003560e01c80630386020514610051578063775a25e31461006d578063915d98a71461008b578063aa8e2eae146100bb575b600080fd5b61006b60048036038101906100669190610c92565b6100f2565b005b61007561025b565b6040516100829190610e11565b60405180910390f35b6100a560048036038101906100a09190610e2c565b61026c565b6040516100b29190610fdd565b60405180910390f35b6100d560048036038101906100d09190610e2c565b6106b9565b6040516100e9989796959493929190611049565b60405180910390f35b6100fc6000610acf565b6040518061010001604052806101126000610ae5565b81526020018881526020018781526020018681526020018581526020018481526020018381526020018281525060018660405161014f9190611134565b908152602001604051809103902060008201518160000155602082015181600101908161017c9190611357565b5060408201518160020190816101929190611357565b5060608201518160030190816101a89190611357565b5060808201518160040190816101be9190611357565b5060a08201518160050190816101d49190611357565b5060c08201518160060190816101ea9190611357565b5060e08201518160070190816102009190611357565b509050507f3d1364d39b05721df530ea11d90e5446915fdec378c12d77c6e1d2dcb0ab08c461022f6000610ae5565b8888888888888860405161024a989796959493929190611049565b60405180910390a150505050505050565b60006102676000610ae5565b905090565b610274610af3565b61027c610af3565b60018360405161028c9190611134565b908152602001604051809103902060405180610100016040529081600082015481526020016001820180546102c09061117a565b80601f01602080910402602001604051908101604052809291908181526020018280546102ec9061117a565b80156103395780601f1061030e57610100808354040283529160200191610339565b820191906000526020600020905b81548152906001019060200180831161031c57829003601f168201915b505050505081526020016002820180546103529061117a565b80601f016020809104026020016040519081016040528092919081815260200182805461037e9061117a565b80156103cb5780601f106103a0576101008083540402835291602001916103cb565b820191906000526020600020905b8154815290600101906020018083116103ae57829003601f168201915b505050505081526020016003820180546103e49061117a565b80601f01602080910402602001604051908101604052809291908181526020018280546104109061117a565b801561045d5780601f106104325761010080835404028352916020019161045d565b820191906000526020600020905b81548152906001019060200180831161044057829003601f168201915b505050505081526020016004820180546104769061117a565b80601f01602080910402602001604051908101604052809291908181526020018280546104a29061117a565b80156104ef5780601f106104c4576101008083540402835291602001916104ef565b820191906000526020600020905b8154815290600101906020018083116104d257829003601f168201915b505050505081526020016005820180546105089061117a565b80601f01602080910402602001604051908101604052809291908181526020018280546105349061117a565b80156105815780601f1061055657610100808354040283529160200191610581565b820191906000526020600020905b81548152906001019060200180831161056457829003601f168201915b5050505050815260200160068201805461059a9061117a565b80601f01602080910402602001604051908101604052809291908181526020018280546105c69061117a565b80156106135780601f106105e857610100808354040283529160200191610613565b820191906000526020600020905b8154815290600101906020018083116105f657829003601f168201915b5050505050815260200160078201805461062c9061117a565b80601f01602080910402602001604051908101604052809291908181526020018280546106589061117a565b80156106a55780601f1061067a576101008083540402835291602001916106a5565b820191906000526020600020905b81548152906001019060200180831161068857829003601f168201915b505050505081525050905080915050919050565b6001818051602081018201805184825260208301602085012081835280955050505050506000915090508060000154908060010180546106f89061117a565b80601f01602080910402602001604051908101604052809291908181526020018280546107249061117a565b80156107715780601f1061074657610100808354040283529160200191610771565b820191906000526020600020905b81548152906001019060200180831161075457829003601f168201915b5050505050908060020180546107869061117a565b80601f01602080910402602001604051908101604052809291908181526020018280546107b29061117a565b80156107ff5780601f106107d4576101008083540402835291602001916107ff565b820191906000526020600020905b8154815290600101906020018083116107e257829003601f168201915b5050505050908060030180546108149061117a565b80601f01602080910402602001604051908101604052809291908181526020018280546108409061117a565b801561088d5780601f106108625761010080835404028352916020019161088d565b820191906000526020600020905b81548152906001019060200180831161087057829003601f168201915b5050505050908060040180546108a29061117a565b80601f01602080910402602001604051908101604052809291908181526020018280546108ce9061117a565b801561091b5780601f106108f05761010080835404028352916020019161091b565b820191906000526020600020905b8154815290600101906020018083116108fe57829003601f168201915b5050505050908060050180546109309061117a565b80601f016020809104026020016040519081016040528092919081815260200182805461095c9061117a565b80156109a95780601f1061097e576101008083540402835291602001916109a9565b820191906000526020600020905b81548152906001019060200180831161098c57829003601f168201915b5050505050908060060180546109be9061117a565b80601f01602080910402602001604051908101604052809291908181526020018280546109ea9061117a565b8015610a375780601f10610a0c57610100808354040283529160200191610a37565b820191906000526020600020905b815481529060010190602001808311610a1a57829003601f168201915b505050505090806007018054610a4c9061117a565b80601f0160208091040260200160405190810160405280929190818152602001828054610a789061117a565b8015610ac55780601f10610a9a57610100808354040283529160200191610ac5565b820191906000526020600020905b815481529060010190602001808311610aa857829003601f168201915b5050505050905088565b6001816000016000828254019250508190555050565b600081600001549050919050565b60405180610100016040528060008152602001606081526020016060815260200160608152602001606081526020016060815260200160608152602001606081525090565b6000604051905090565b600080fd5b600080fd5b600080fd5b600080fd5b6000601f19601f8301169050919050565b7f4e487b7100000000000000000000000000000000000000000000000000000000600052604160045260246000fd5b610b9f82610b56565b810181811067ffffffffffffffff82111715610bbe57610bbd610b67565b5b80604052505050565b6000610bd1610b38565b9050610bdd8282610b96565b919050565b600067ffffffffffffffff821115610bfd57610bfc610b67565b5b610c0682610b56565b9050602081019050919050565b82818337600083830152505050565b6000610c35610c3084610be2565b610bc7565b905082815260208101848484011115610c5157610c50610b51565b5b610c5c848285610c13565b509392505050565b600082601f830112610c7957610c78610b4c565b5b8135610c89848260208601610c22565b91505092915050565b600080600080600080600060e0888a031215610cb157610cb0610b42565b5b600088013567ffffffffffffffff811115610ccf57610cce610b47565b5b610cdb8a828b01610c64565b975050602088013567ffffffffffffffff811115610cfc57610cfb610b47565b5b610d088a828b01610c64565b965050604088013567ffffffffffffffff811115610d2957610d28610b47565b5b610d358a828b01610c64565b955050606088013567ffffffffffffffff811115610d5657610d55610b47565b5b610d628a828b01610c64565b945050608088013567ffffffffffffffff811115610d8357610d82610b47565b5b610d8f8a828b01610c64565b93505060a088013567ffffffffffffffff811115610db057610daf610b47565b5b610dbc8a828b01610c64565b92505060c088013567ffffffffffffffff811115610ddd57610ddc610b47565b5b610de98a828b01610c64565b91505092959891949750929550565b6000819050919050565b610e0b81610df8565b82525050565b6000602082019050610e266000830184610e02565b92915050565b600060208284031215610e4257610e41610b42565b5b600082013567ffffffffffffffff811115610e6057610e5f610b47565b5b610e6c84828501610c64565b91505092915050565b610e7e81610df8565b82525050565b600081519050919050565b600082825260208201905092915050565b60005b83811015610ebe578082015181840152602081019050610ea3565b60008484015250505050565b6000610ed582610e84565b610edf8185610e8f565b9350610eef818560208601610ea0565b610ef881610b56565b840191505092915050565b600061010083016000830151610f1c6000860182610e75565b5060208301518482036020860152610f348282610eca565b91505060408301518482036040860152610f4e8282610eca565b91505060608301518482036060860152610f688282610eca565b91505060808301518482036080860152610f828282610eca565b91505060a083015184820360a0860152610f9c8282610eca565b91505060c083015184820360c0860152610fb68282610eca565b91505060e083015184820360e0860152610fd08282610eca565b9150508091505092915050565b60006020820190508181036000830152610ff78184610f03565b905092915050565b600082825260208201905092915050565b600061101b82610e84565b6110258185610fff565b9350611035818560208601610ea0565b61103e81610b56565b840191505092915050565b60006101008201905061105f600083018b610e02565b8181036020830152611071818a611010565b905081810360408301526110858189611010565b905081810360608301526110998188611010565b905081810360808301526110ad8187611010565b905081810360a08301526110c18186611010565b905081810360c08301526110d58185611010565b905081810360e08301526110e98184611010565b90509998505050505050505050565b600081905092915050565b600061110e82610e84565b61111881856110f8565b9350611128818560208601610ea0565b80840191505092915050565b60006111408284611103565b915081905092915050565b7f4e487b7100000000000000000000000000000000000000000000000000000000600052602260045260246000fd5b6000600282049050600182168061119257607f821691505b6020821081036111a5576111a461114b565b5b50919050565b60008190508160005260206000209050919050565b60006020601f8301049050919050565b600082821b905092915050565b60006008830261120d7fffffffffffffffffffffffffffffffffffffffffffffffffffffffffffffffff826111d0565b61121786836111d0565b95508019841693508086168417925050509392505050565b6000819050919050565b600061125461124f61124a84610df8565b61122f565b610df8565b9050919050565b6000819050919050565b61126e83611239565b61128261127a8261125b565b8484546111dd565b825550505050565b600090565b61129761128a565b6112a2818484611265565b505050565b5b818110156112c6576112bb60008261128f565b6001810190506112a8565b5050565b601f82111561130b576112dc816111ab565b6112e5846111c0565b810160208510156112f4578190505b611308611300856111c0565b8301826112a7565b50505b505050565b600082821c905092915050565b600061132e60001984600802611310565b1980831691505092915050565b6000611347838361131d565b9150826002028217905092915050565b61136082610e84565b67ffffffffffffffff81111561137957611378610b67565b5b611383825461117a565b61138e8282856112ca565b600060209050601f8311600181146113c157600084156113af578287015190505b6113b9858261133b565b865550611421565b601f1984166113cf866111ab565b60005b828110156113f7578489015182556001820191506020850194506020810190506113d2565b868310156114145784890151611410601f89168261131d565b8355505b6001600288020188555050505b50505050505056fea2646970667358221220d77ab823294a9b3bf8e5245e46d5dc69deb16fb494c305372ca4fd15cfdbc97d64736f6c63430008140033",
  "linkReferences": {},
  "deployedLinkReferences": {}
}